{
  "_format": "hh-sol-artifact-1",
  "contractName": "Lock",
  "sourceName": "contracts/Lock.sol",
  "abi": [
    {
      "inputs": [
        {
          "internalType": "uint256",
          "name": "num",
          "type": "uint256"
        }
      ],
      "name": "add",
      "outputs": [],
      "stateMutability": "nonpayable",
      "type": "function"
    },
    {
      "inputs": [],
      "name": "get",
      "outputs": [
        {
          "internalType": "uint256",
          "name": "",
          "type": "uint256"
        }
      ],
      "stateMutability": "view",
      "type": "function"
    },
    {
      "inputs": [
        {
          "internalType": "uint256",
          "name": "num",
          "type": "uint256"
        }
      ],
      "name": "multiply",
      "outputs": [],
      "stateMutability": "nonpayable",
      "type": "function"
    },
    {
      "inputs": [
        {
          "internalType": "uint256",
          "name": "num",
          "type": "uint256"
        }
      ],
      "name": "subtract",
      "outputs": [],
      "stateMutability": "nonpayable",
      "type": "function"
    }
  ],
  "bytecode": "0x60806040526000805534801561001457600080fd5b506102be806100246000396000f3fe608060405234801561001057600080fd5b506004361061004c5760003560e01c80631003e2d2146100515780631dc05f171461006d5780636d4ce63c14610089578063c6888fa1146100a7575b600080fd5b61006b60048036038101906100669190610158565b6100c3565b005b61008760048036038101906100829190610158565b6100de565b005b6100916100f9565b60405161009e9190610194565b60405180910390f35b6100c160048036038101906100bc9190610158565b610102565b005b806000808282546100d491906101de565b9250508190555050565b806000808282546100ef9190610212565b9250508190555050565b60008054905090565b806000808282546101139190610246565b9250508190555050565b600080fd5b6000819050919050565b61013581610122565b811461014057600080fd5b50565b6000813590506101528161012c565b92915050565b60006020828403121561016e5761016d61011d565b5b600061017c84828501610143565b91505092915050565b61018e81610122565b82525050565b60006020820190506101a96000830184610185565b92915050565b7f4e487b7100000000000000000000000000000000000000000000000000000000600052601160045260246000fd5b60006101e982610122565b91506101f483610122565b925082820190508082111561020c5761020b6101af565b5b92915050565b600061021d82610122565b915061022883610122565b92508282039050818111156102405761023f6101af565b5b92915050565b600061025182610122565b915061025c83610122565b925082820261026a81610122565b91508282048414831517610281576102806101af565b5b509291505056fea26469706673582212208018beebb0364c7ce8823eb003309a4a97c7f0093e6714880734da737115471764736f6c63430008180033",
  "linkReferences": {},
  "deployedLinkReferences": {}
}